{
  "contractName": "PirateHelper",
  "abi": [
    {
      "constant": true,
      "inputs": [],
      "name": "getPiratesLenght",
      "outputs": [
        {
          "name": "",
          "type": "uint256"
        }
      ],
      "payable": false,
      "stateMutability": "view",
      "type": "function"
    },
    {
      "constant": false,
      "inputs": [
        {
          "name": "_address",
          "type": "address"
        }
      ],
      "name": "setPetContractAddress",
      "outputs": [],
      "payable": false,
      "stateMutability": "nonpayable",
      "type": "function"
    },
    {
      "constant": true,
      "inputs": [],
      "name": "owner",
      "outputs": [
        {
          "name": "",
          "type": "address"
        }
      ],
      "payable": false,
      "stateMutability": "view",
      "type": "function"
    },
    {
      "constant": true,
      "inputs": [
        {
          "name": "",
          "type": "uint256"
        }
      ],
      "name": "pirates",
      "outputs": [
        {
          "name": "name",
          "type": "string"
        },
        {
          "name": "dna",
          "type": "uint256"
        },
        {
          "name": "level",
          "type": "uint32"
        },
        {
          "name": "readyTime",
          "type": "uint32"
        },
        {
          "name": "winCount",
          "type": "uint16"
        },
        {
          "name": "lossCount",
          "type": "uint16"
        }
      ],
      "payable": false,
      "stateMutability": "view",
      "type": "function"
    },
    {
      "constant": false,
      "inputs": [
        {
          "name": "_name",
          "type": "string"
        }
      ],
      "name": "createRandomPirate",
      "outputs": [],
      "payable": false,
      "stateMutability": "nonpayable",
      "type": "function"
    },
    {
      "constant": true,
      "inputs": [
        {
          "name": "",
          "type": "uint256"
        }
      ],
      "name": "pirateToOwner",
      "outputs": [
        {
          "name": "",
          "type": "address"
        }
      ],
      "payable": false,
      "stateMutability": "view",
      "type": "function"
    },
    {
      "constant": false,
      "inputs": [
        {
          "name": "newOwner",
          "type": "address"
        }
      ],
      "name": "transferOwnership",
      "outputs": [],
      "payable": false,
      "stateMutability": "nonpayable",
      "type": "function"
    },
    {
      "anonymous": false,
      "inputs": [
        {
          "indexed": false,
          "name": "pirateId",
          "type": "uint256"
        },
        {
          "indexed": false,
          "name": "name",
          "type": "string"
        },
        {
          "indexed": false,
          "name": "dna",
          "type": "uint256"
        }
      ],
      "name": "NewPirate",
      "type": "event"
    },
    {
      "anonymous": false,
      "inputs": [
        {
          "indexed": true,
          "name": "previousOwner",
          "type": "address"
        },
        {
          "indexed": true,
          "name": "newOwner",
          "type": "address"
        }
      ],
      "name": "OwnershipTransferred",
      "type": "event"
    },
    {
      "constant": false,
      "inputs": [],
      "name": "withdraw",
      "outputs": [],
      "payable": false,
      "stateMutability": "nonpayable",
      "type": "function"
    },
    {
      "constant": false,
      "inputs": [
        {
          "name": "_fee",
          "type": "uint256"
        }
      ],
      "name": "setLevelUpFee",
      "outputs": [],
      "payable": false,
      "stateMutability": "nonpayable",
      "type": "function"
    },
    {
      "constant": false,
      "inputs": [
        {
          "name": "_pirateId",
          "type": "uint256"
        }
      ],
      "name": "levelUp",
      "outputs": [],
      "payable": true,
      "stateMutability": "payable",
      "type": "function"
    },
    {
      "constant": false,
      "inputs": [
        {
          "name": "_pirateId",
          "type": "uint256"
        },
        {
          "name": "_newName",
          "type": "string"
        }
      ],
      "name": "changeName",
      "outputs": [],
      "payable": false,
      "stateMutability": "nonpayable",
      "type": "function"
    },
    {
      "constant": false,
      "inputs": [
        {
          "name": "_pirateId",
          "type": "uint256"
        },
        {
          "name": "_newDna",
          "type": "uint256"
        }
      ],
      "name": "changeDna",
      "outputs": [],
      "payable": false,
      "stateMutability": "nonpayable",
      "type": "function"
    },
    {
      "constant": true,
      "inputs": [
        {
          "name": "_owner",
          "type": "address"
        }
      ],
      "name": "getPiratesByOwner",
      "outputs": [
        {
          "name": "",
          "type": "uint256[]"
        }
      ],
      "payable": false,
      "stateMutability": "view",
      "type": "function"
    }
  ],
  "bytecode": "0x60806040526010600155600154600a0a6002556201518060035566038d7ea4c68000600855336000806101000a81548173ffffffffffffffffffffffffffffffffffffffff021916908373ffffffffffffffffffffffffffffffffffffffff160217905550611210806100736000396000f3006080604052600436106100c5576000357c0100000000000000000000000000000000000000000000000000000000900463ffffffff1680630ce90ec2146100ca5780632e40c04b146100ea5780633ccfd60b146101825780634921ac5c146101995780635faf2880146101c45780638d089b4e146101fb5780638da5cb5b1461023e578063bf14e95614610295578063c39cbef114610386578063ccf670f8146103cb578063d8e29daa146103f8578063db7e28a014610461578063f2fde38b146104ce575b600080fd5b6100e860048036038101908080359060200190929190505050610511565b005b3480156100f657600080fd5b5061012b600480360381019080803573ffffffffffffffffffffffffffffffffffffffff16906020019092919050505061057d565b6040518080602001828103825283818151815260200191508051906020019060200280838360005b8381101561016e578082015181840152602081019050610153565b505050509050019250505060405180910390f35b34801561018e57600080fd5b506101976106af565b005b3480156101a557600080fd5b506101ae61078b565b6040518082815260200191505060405180910390f35b3480156101d057600080fd5b506101f96004803603810190808035906020019092919080359060200190929190505050610798565b005b34801561020757600080fd5b5061023c600480360381019080803573ffffffffffffffffffffffffffffffffffffffff16906020019092919050505061087a565b005b34801561024a57600080fd5b50610253610919565b604051808273ffffffffffffffffffffffffffffffffffffffff1673ffffffffffffffffffffffffffffffffffffffff16815260200191505060405180910390f35b3480156102a157600080fd5b506102c06004803603810190808035906020019092919050505061093e565b60405180806020018781526020018663ffffffff1663ffffffff1681526020018563ffffffff1663ffffffff1681526020018461ffff1661ffff1681526020018361ffff1661ffff168152602001828103825288818151815260200191508051906020019080838360005b8381101561034657808201518184015260208101905061032b565b50505050905090810190601f1680156103735780820380516001836020036101000a031916815260200191505b5097505050505050505060405180910390f35b34801561039257600080fd5b506103c960048036038101908080359060200190929190803590602001908201803590602001919091929391929390505050610a5d565b005b3480156103d757600080fd5b506103f660048036038101908080359060200190929190505050610b4b565b005b34801561040457600080fd5b5061045f600480360381019080803590602001908201803590602001908080601f0160208091040260200160405190810160405280939291908181526020018383808284378201915050505050509192919290505050610bb0565b005b34801561046d57600080fd5b5061048c60048036038101908080359060200190929190505050610c29565b604051808273ffffffffffffffffffffffffffffffffffffffff1673ffffffffffffffffffffffffffffffffffffffff16815260200191505060405180910390f35b3480156104da57600080fd5b5061050f600480360381019080803573ffffffffffffffffffffffffffffffffffffffff169060200190929190505050610c5c565b005b6008543414151561052157600080fd5b60048181548110151561053057fe5b9060005260206000209060030201600201600081819054906101000a900463ffffffff168092919060010191906101000a81548163ffffffff021916908363ffffffff1602179055505050565b606080600080600660008673ffffffffffffffffffffffffffffffffffffffff1673ffffffffffffffffffffffffffffffffffffffff168152602001908152602001600020546040519080825280602002602001820160405280156105f15781602001602082028038833980820191505090505b50925060009150600090505b6004805490508110156106a4578473ffffffffffffffffffffffffffffffffffffffff166005600083815260200190815260200160002060009054906101000a900473ffffffffffffffffffffffffffffffffffffffff1673ffffffffffffffffffffffffffffffffffffffff1614156106975780838381518110151561068057fe5b906020019060200201818152505081806001019250505b80806001019150506105fd565b829350505050919050565b6000809054906101000a900473ffffffffffffffffffffffffffffffffffffffff1673ffffffffffffffffffffffffffffffffffffffff163373ffffffffffffffffffffffffffffffffffffffff1614151561070a57600080fd5b6000809054906101000a900473ffffffffffffffffffffffffffffffffffffffff1673ffffffffffffffffffffffffffffffffffffffff166108fc3073ffffffffffffffffffffffffffffffffffffffff16319081150290604051600060405180830381858888f19350505050158015610788573d6000803e3d6000fd5b50565b6000600480549050905090565b601482816004828154811015156107ab57fe5b906000526020600020906003020160020160009054906101000a900463ffffffff1663ffffffff16101515156107e057600080fd5b836005600082815260200190815260200160002060009054906101000a900473ffffffffffffffffffffffffffffffffffffffff1673ffffffffffffffffffffffffffffffffffffffff163373ffffffffffffffffffffffffffffffffffffffff1614151561084e57600080fd5b8360048681548110151561085e57fe5b9060005260206000209060030201600101819055505050505050565b6000809054906101000a900473ffffffffffffffffffffffffffffffffffffffff1673ffffffffffffffffffffffffffffffffffffffff163373ffffffffffffffffffffffffffffffffffffffff161415156108d557600080fd5b80600760006101000a81548173ffffffffffffffffffffffffffffffffffffffff021916908373ffffffffffffffffffffffffffffffffffffffff16021790555050565b6000809054906101000a900473ffffffffffffffffffffffffffffffffffffffff1681565b60048181548110151561094d57fe5b9060005260206000209060030201600091509050806000018054600181600116156101000203166002900480601f0160208091040260200160405190810160405280929190818152602001828054600181600116156101000203166002900480156109f95780601f106109ce576101008083540402835291602001916109f9565b820191906000526020600020905b8154815290600101906020018083116109dc57829003601f168201915b5050505050908060010154908060020160009054906101000a900463ffffffff16908060020160049054906101000a900463ffffffff16908060020160089054906101000a900461ffff169080600201600a9054906101000a900461ffff16905086565b60028381600482815481101515610a7057fe5b906000526020600020906003020160020160009054906101000a900463ffffffff1663ffffffff1610151515610aa557600080fd5b846005600082815260200190815260200160002060009054906101000a900473ffffffffffffffffffffffffffffffffffffffff1673ffffffffffffffffffffffffffffffffffffffff163373ffffffffffffffffffffffffffffffffffffffff16141515610b1357600080fd5b8484600488815481101515610b2457fe5b90600052602060002090600302016000019190610b429291906110bf565b50505050505050565b6000809054906101000a900473ffffffffffffffffffffffffffffffffffffffff1673ffffffffffffffffffffffffffffffffffffffff163373ffffffffffffffffffffffffffffffffffffffff16141515610ba657600080fd5b8060088190555050565b600080600660003373ffffffffffffffffffffffffffffffffffffffff1673ffffffffffffffffffffffffffffffffffffffff16815260200190815260200160002054141515610bff57600080fd5b610c0882610db1565b9050606481811515610c1657fe5b0681039050610c258282610e33565b5050565b60056020528060005260406000206000915054906101000a900473ffffffffffffffffffffffffffffffffffffffff1681565b6000809054906101000a900473ffffffffffffffffffffffffffffffffffffffff1673ffffffffffffffffffffffffffffffffffffffff163373ffffffffffffffffffffffffffffffffffffffff16141515610cb757600080fd5b600073ffffffffffffffffffffffffffffffffffffffff168173ffffffffffffffffffffffffffffffffffffffff1614151515610cf357600080fd5b8073ffffffffffffffffffffffffffffffffffffffff166000809054906101000a900473ffffffffffffffffffffffffffffffffffffffff1673ffffffffffffffffffffffffffffffffffffffff167f8be0079c531659141344cd1fd0a4f28419497f9722a3daafe3b4186f6b6457e060405160405180910390a3806000806101000a81548173ffffffffffffffffffffffffffffffffffffffff021916908373ffffffffffffffffffffffffffffffffffffffff16021790555050565b600080826040518082805190602001908083835b602083101515610dea5780518252602082019150602081019050602083039250610dc5565b6001836020036101000a038019825116818451168082178552505050505050905001915050604051809103902060019004905060025481811515610e2a57fe5b06915050919050565b60006001600460c060405190810160405280868152602001858152602001600163ffffffff168152602001600354420163ffffffff168152602001600061ffff168152602001600061ffff16815250908060018154018082558091505090600182039060005260206000209060030201600090919290919091506000820151816000019080519060200190610ec992919061113f565b506020820151816001015560408201518160020160006101000a81548163ffffffff021916908363ffffffff16021790555060608201518160020160046101000a81548163ffffffff021916908363ffffffff16021790555060808201518160020160086101000a81548161ffff021916908361ffff16021790555060a082015181600201600a6101000a81548161ffff021916908361ffff1602179055505050039050336005600083815260200190815260200160002060006101000a81548173ffffffffffffffffffffffffffffffffffffffff021916908373ffffffffffffffffffffffffffffffffffffffff160217905550600660003373ffffffffffffffffffffffffffffffffffffffff1673ffffffffffffffffffffffffffffffffffffffff168152602001908152602001600020600081548092919060010191905055507f6b0b682eb60f10e65ca2065dceecd9e5d24a08f912cdcb6bf59fb4ded1b3a1048184846040518084815260200180602001838152602001828103825284818151815260200191508051906020019080838360005b8381101561107e578082015181840152602081019050611063565b50505050905090810190601f1680156110ab5780820380516001836020036101000a031916815260200191505b5094505050505060405180910390a1505050565b828054600181600116156101000203166002900490600052602060002090601f016020900481019282601f1061110057803560ff191683800117855561112e565b8280016001018555821561112e579182015b8281111561112d578235825591602001919060010190611112565b5b50905061113b91906111bf565b5090565b828054600181600116156101000203166002900490600052602060002090601f016020900481019282601f1061118057805160ff19168380011785556111ae565b828001600101855582156111ae579182015b828111156111ad578251825591602001919060010190611192565b5b5090506111bb91906111bf565b5090565b6111e191905b808211156111dd5760008160009055506001016111c5565b5090565b905600a165627a7a72305820a6196b279e1a6b1e45148d6019da2fb61cb03687d9fbdb2da7eb6ea261a2a1150029",
  "source": "pragma solidity ^0.4.20;\n\nimport \"./piratefeeding.sol\";\n\ncontract PirateHelper is PirateFeeding {\n\n  uint levelUpFee = 0.001 ether;\n\n  modifier aboveLevel(uint _level, uint _pirateId) {\n    require(pirates[_pirateId].level >= _level);\n    _;\n  }\n\n  function withdraw() external onlyOwner {\n    owner.transfer(address(this).balance);\n  }\n\n  function setLevelUpFee(uint _fee) external onlyOwner {\n    levelUpFee = _fee;\n  }\n\n  function levelUp(uint _pirateId) external payable {\n    require(msg.value == levelUpFee);\n    pirates[_pirateId].level++;\n  }\n\n  function changeName(uint _pirateId, string _newName) external aboveLevel(2, _pirateId) onlyOwnerOf(_pirateId) {\n    pirates[_pirateId].name = _newName;\n  }\n\n  function changeDna(uint _pirateId, uint _newDna) external aboveLevel(20, _pirateId) onlyOwnerOf(_pirateId) {\n    pirates[_pirateId].dna = _newDna;\n  }\n\n//delete view\n  function getPiratesByOwner(address _owner) external view returns(uint[]) {\n    uint[] memory result = new uint[](ownerPirateCount[_owner]);\n    uint counter = 0;\n    for (uint i = 0; i < pirates.length; i++) {\n      if (pirateToOwner[i] == _owner) {\n        result[counter] = i;\n        counter++;\n      }\n    }\n    return result;\n  }\n\n\n}\n\n",
  "sourcePath": "/home/freeman/Desktop/pirates/contracts/piratehelper.sol",
  "compiler": {
    "name": "solc",
    "version": "0.4.24+commit.e67f0147.Emscripten.clang"
  },
  "schemaVersion": "2.0.1",
  "updatedAt": "2018-07-13T17:55:13.190Z"
}